:020000040003F7
:10C000007034002049D903005BD903005DD90300D7
:10C010000000000000000000000000000000000020
:10C020000000000000000000000000005FD90300D5
:10C03000000000000000000061D9030063D9030084
:10C0400065D9030065D9030065D9030065D90300EC
:10C0500065D90300000000001DE9030065D9030055
:10C0600065D9030065D9030065D9030065D90300CC
:10C0700065D9030065D9030065D9030065D90300BC
:10C0800065D9030095DC030065D9030065D9030079
:10C09000CBDC030065D9030071E8030065D9030018
:10C0A00065D9030065D9030000000000000000000E
:10C0B0000000000000000000000000000000000080
:10C0C00000F002F800F040F80CA030C8083824183E
:10C0D0002D18A246671EAB4654465D46AC4201D1C0
:10C0E00000F032F87E460F3E0FCCB64601263342B2
:10C0F00000D0FB1AA246AB4633431847F036000087
:10C1000010370000103A02D378C878C1FAD8520725
:10C1100001D330C830C101D504680C6070470000FD
:10C120000023002400250026103A01D378C1FBD853
:10C13000520700D330C100D50B6070471FB5C04611
:10C14000C0461FBD10B510BD03F0A4FA1146FFF79D
:10C15000F5FF00F0B0F803F0BCFA03B4FFF7F2FF0C
:10C1600003BC03F0C1FA0000144C144D0646064F00
:10C17000F0B4034C024D024E014FF0B407480047A3
:10C18000000000000000000000000021000000008E
:10C19000000000000000000000000000F9FFFFFFA9
:10C1A000016881F308884068034AEFF305839A42E7
:10C1B000DAD1024CA646004700000000FFFFFFFF57
:10C1C000401E00BF00BF00BF00BF00BF00BF00BFD8
:10C1D00000BF00BF00BF00BF00BFF1D1704700002B
:10C1E000401E00BF00BF00BF00BF00BF00BF00BFB8
:10C1F00000BF00BF00BF00BF00BFF1D1704700000B
:10C2000070B505460C46164602E00FCC0FC5103E31
:10C21000102EFAD2082E02D303CC03C5083E042EFA
:10C2200007D301CC01C5361F03E021782970641CB7
:10C230006D1C761EF9D270BD00F0C2F800F0C0F897
:10C2400010B502F0A5FE10BD10B5754C86B01ECC21
:10C2500003946C460EC4002803D0684618DF0028FB
:10C2600019D10F20800313DF002814D16D4B502209
:10C270006D49082002F0D8FA00280CD10490012062
:10C280006946087404A860DF002804D1674802F0FA
:10C29000E7FA002801D000F093F806B010BD624A1A
:10C2A00010B550321421082002F0B0FB002801D054
:10C2B00000F086F810BD08B55D48C069B12819D0F6
:10C2C00000245C480F2140698903884210D1012075
:10C2D0000007006901218902884209D1564800906F
:10C2E000564B05220321002001F016FD002803D043
:10C2F00000F066F80124E4E750490120143902F007
:10C300004DFB0028F4D103204D490004086000F0E3
:10C31000BFFC00F004FD012500280ED000F00EFD4A
:10C320000028E5D120466840FFF78EFFFFF7B7FFF2
:10C3300000F02DFD0028DBD105E020466840FFF726
:10C3400083FFFFF7ACFF3F4800690006C00F04D031
:10C35000002020433C4C07D101E00120F9E7A06810
:10C3600000F0E0FB00280AD1FF203DDF0028BFD10C
:10C3700000F09FFC0028BBD10A2000F029F8A0683B
:10C3800000F0D0FB00280ED0082000F021F8092092
:10C3900000F01EF80A2000F01BF80F2000F018F83B
:10C3A000A06800F092FC082000F012F8092000F0CC
:10C3B0000FF80A2000F00CF80F2000F009F897E7BA
:10C3C000BFF34F8F22492148C860BFF34F8FFEE76C
:10C3D000012181401B48C16070471CB5019100904C
:10C3E0001C4A0821684602F025FB1CBD10B500213F
:10C3F000194A084602F01EFB10BD10B50246082976
:10C4000001D0FFF7DDFF11685068884710BD10B5F7
:10C41000002901D0FFF7D4FF02F0C8F910BD0000D9
:10C4200010F70300EDC303006023002041C20300A6
:10C430000005004000100010DBC303002021002095
:10C440001C07005000050050003000000400FA05F1
:10C4500000ED00E0FBC303000FC4030070B5F94D0D
:10C460001E46AB6988B01446002B22D0284680684F
:10C47000022902D004291CD105E0052819D1324631
:10C480002146032014E0022813D11822EE4902A805
:10C49000FFF7B6FE069807990090019102A80FC811
:10C4A00000F07AFB0320A860AB69324621460220E7
:10C4B0009847200003D0E5A25D21FFF7BDFE08B03C
:10C4C00070BD4CB5DF4E0120307006200195009400
:10C4D00000F062FB4CBD10B5DA4C2078002801D08A
:10C4E000082010BD206901F004FD002803D0D7A268
:10C4F0008021FFF7A1FE0F2100228904206901F0AD
:10C50000BBFC040003D0D1A28321FFF795FE204697
:10C5100010BDCC4910B5CB48243141610221816066
:10C52000C168243002F03EFF002803D0C7A2992141
:10C53000FFF782FE10BDC349C2481C31416103218F
:10C5400081608369002B03D0002211460220184726
:10C55000704700B5BB4987B049886A4611810321FD
:10C56000090389680691C84901204A6803928A68CC
:10C570000492C9680591069A0091019202A90EC918
:10C5800000F00AFB002007B000BD30B5BE4CAD483E
:10C5900087B02430E16802F005FF002803D0ABA289
:10C5A000F321FFF749FEA748E2681C3041680023E9
:10C5B000083002F0C7FE05000DD1A249019049885C
:10C5C0006A461181E1680591069A0091019202A9DB
:10C5D0000EC900F0E1FA284607B030BD00B5994910
:10C5E00087B049886A461181A74903204A680392A7
:10C5F0008A680492C9680591069A0091019202A97D
:10C600000EC900F0C9FA0020BDE7F0B58E4A91B01E
:10C61000183207CA02AB07C303263603B0680F21DE
:10C620008903091A874C4908471800256570214677
:10C630006580243102A802F069FE002823D121463A
:10C640002431B068486024390A46526ACA610F2111
:10C650008903091A4908401821461C31486005A879
:10C6600000F0A9FB0798FE2802D13868401C12D0C0
:10C670000F20B1688003401A410872481C3002F054
:10C6800091FE002802D0A56011B0F0BD0DA90EC921
:10C69000052000F081FA6B487C4A0021103001F03F
:10C6A0008FFB002804D0FF2168A24C31FFF7C4FDA6
:10C6B0000F2100228904206901F0DEFB002804D04C
:10C6C000FF2162A25031FFF7B7FD01206560A06035
:10C6D0000020D9E75B498861704770B542686A48B5
:10C6E000146853689168D26804604360C2608160D6
:10C6F0000078440701D5840705D19C0703D18C0736
:10C7000001D1940701D0062070BD5B189A184D4DD9
:10C710000F239B02EA60994214D85D495D4CC30720
:10C7200009D08868EF218902081A90420AD35A4832
:10C7300020605A480FE089680F239B03591A490863
:10C74000914201D20C2070BD55492160800701D56E
:10C75000544800E054486060A868012802D00826C8
:10C76000304670BDFFF7B7FE0600FAD12168E868D1
:10C770008847F5E770B5050004D0287A800703D014
:10C78000102070BD0E2070BD2E4CA068032805D06F
:10C79000042803D0052803D0082070BD0520A06020
:10C7A0006868E168860060688019884204D90020C2
:10C7B000C04360600C2070BDFFF78DFE0028FAD1E9
:10C7C000A96832466368606902F0BCFD0028F2D1B6
:10C7D000616889196160E2689142ECD0092070BDFE
:10C7E000F8B5184C0546A068032802D0042805D1E6
:10C7F00001E00420A0606068002801D00820F8BD96
:10C80000FFF769FE0028FAD11F4B0021103308E022
:10C81000AA688E00965962789700521CDE516270A9
:10C82000491C6A688A42F3D8F8BD70B5054CA06807
:10C83000052805D10620A060E1686068884235D0EF
:10C84000082549E00020002020F703002F686F6DC5
:10C85000652F7267726F7665722F706C61792F64C5
:10C86000656D6F2D617070732F424C455F426F6F25
:10C87000744C6F616465722F6466755F6475616C7A
:10C880005F62616E6B2E630000250020C3C403004D
:10C89000003000002C20002013C5030053C5030006
:10C8A00037C50300DDC503008BC50300FFF713FE8A
:10C8B000050011D1606900224068E16802F0AAFD1C
:10C8C0006080834962780988002A03D0884201D0B9
:10C8D0000B2070BD0720A060284670BD10B57D48B4
:10C8E0008168072901D0082010BD006901F001FB13
:10C8F000002803D0784A7949FFF79EFC75482C3010
:10C900004068804710BD1CB507200195009400F0D9
:10C9100043F91CBDF8B51C4617460D46064600F007
:10C92000C1F8002817D001200003854207D923460B
:10C93000291B301B1A46FFF7EDFF00280BD13A46A2
:10C940002946304600F0B9F8002804D13A46294675
:10C95000304600F0A7F8F8BDF0B589B0684600F0A1
:10C960002AFA049800282AD001210903079A4018BE
:10C97000904226D9501A45081046049A0C4687184A
:10C98000024668001618001908900320000380680A
:10C99000049988420DD261190846042200F08DF8EE
:10C9A00000280CD121460422084600F086F8002811
:10C9B00005D1BA1B2B4630460899FFF7ABFF09B0EB
:10C9C000F0BD049A079800F078F8F8E700B58DB04C
:10C9D00004A800F0F0F9099800280DD00898002864
:10C9E0000CD008990B9840180190002109980091EB
:10C9F00080080290684618DF0DB000BD03200003D8
:10CA000080680F218903091A4908ECE700B58DB049
:10CA100004A800F0D0F909980028EDD00F2108985B
:10CA2000890300280CD0089A0B9801918018029075
:10CA300003220998009280080390684618DFDBE71C
:10CA40000320000380680A1A5208EEE730B591B05F
:10CA5000684600F0B0F90498002814D001210903B9
:10CA6000079A4018904214D9501A43081046049A65
:10CA70005C0082180019611803242403A468049D33
:10CA8000AC4202D20E2011B030BD121AFFF742FFA5
:10CA9000F9E703200CAB07C3049880080F900CA89B
:10CAA00018DFF0E71FB5032301909008039000936F
:10CAB0000291684618DF04B010BD1FB50123019034
:10CAC0009008039000930291684618DFF3E7000096
:10CAD00010250020002000204CC80300690200003F
:10CAE00010B5C3480368012B02D1022900D10160AF
:10CAF000100003D0BFA24221FFF79EFB10BD10B56E
:10CB0000BB4C40DF002803D0BAA25421FFF794FBAE
:10CB100002F006F82068022803D0032801D0042878
:10CB2000EFD110BD38B50068401C19D0002468460C
:10CB300000F08AF900980168012910D18188002944
:10CB40000AD0C168032000038068002202F062FC62
:10CB500000998988814201D1012400E00024204607
:10CB600038BD10B50446A2482021001D02F09CFBF0
:10CB7000002803D09FA28921FFF75EFB9C48002379
:10CB800020222146001D02F003FB002803D099A2B9
:10CB90008F21FFF751FB10BD0FB438B5684600F088
:10CBA00053F96846818A049DA1480122FF23904CD5
:10CBB000002D20D0012D24D0032D38D00021022DAE
:10CBC00044D02A46062D49D01346FE22042B4FD0CE
:10CBD0001946052B53D0072909D100F067FC00281E
:10CBE00003D084A2ED21FFF727FB0420206038BC8E
:10CBF00008BC04B018478180089983600260C16056
:10CC000010E08180079D06994919089D4919C16066
:10CC1000A5218360016006990161079985614161E1
:10CC20000999C16122608248FFF79BFFDFE7009905
:10CC30000B6803608B888380C968C160AA2181600A
:10CC40000699016107994161089905E081800360B7
:10CC5000C1600161836041618161E3E700F026FC0E
:10CC6000002803D063A2D321FFF7E6FA0320BDE733
:10CC700081800260C160009989688160D3E7009972
:10CC80000B6803608B888380C9688260C160CAE7D3
:10CC90000EB568480090202001900120029002F01B
:10CCA000DDF9002804D152496846091D02F0FFF958
:10CCB0000EBD10B5FFF7A9FC002805D100F02CFD32
:10CCC0000446FFF71CFF204610BD70B511DF002899
:10CCD00004D0FF2147A23B31FFF7AEFA56490020AE
:10CCE0000B68554C012180340A4682401A4204D018
:10CCF000C506ED0E0A46AA402260401C2028F3D348
:10CD000003242403A06813DF002804D0FF2139A2E4
:10CD10004031FFF791FAA06800F092F870BD08B5B5
:10CD2000684600F091F800980168A52904D0806851
:10CD3000AA2801D0002008BD012008BD10B5FFF7CA
:10CD400085FE002803D1FFF761FE00281ED0642075
:10CD500000F082FAFFF700FE002804D0FF2125A290
:10CD60006531FFF769FAFFF771FE002804D0FF2153
:10CD700020A26831FFF760FAFFF728FE040004D014
:10CD8000FF211CA26B31FFF757FA204610BD00B5FA
:10CD900089B01822294902A8FFF732FA06980799A4
:10CDA0000090019102A80FC8FFF7F6FEFFF7A7FE5B
:10CDB000002009B000BD10B50D4988B0044600231D
:10CDC0002022091D684602F024FA00982060684677
:10CDD0008088A0800398E0600298A0600498206199
:10CDE000059860610698A0610798E06108B010BDE1
:10CDF000342000202F686F6D652F7267726F766523
:10CE0000722F706C61792F64656D6F2D6170707316
:10CE10002F424C455F426F6F744C6F616465722F97
:10CE2000626F6F746C6F616465722E630000000046
:10CE300050250020E1CA030000E100E044F70300B0
:10CE400010B5FFF7ADF910BD014901607047000052
:10CE500000FC030030B585B0002822D00388FA4CCE
:10CE6000A34220D0F94B1B78002B1CD0F74B102588
:10CE70005B1C1D705970002401259A7003226946BD
:10CE80000A820094019402940394C2890A808D70EE
:10CE90008C8004A90291039300886946A6DF05B03F
:10CEA00030BD0E20FBE70820F9E7F0B589B0044655
:10CEB0000227684607700D468783608A08AB07AA79
:10CEC0000021A5DF0026002804D0616A00291AD0BD
:10CED000884718E06846008CC007C00F13D068462A
:10CEE000868020886946A8DF002812D1A97E2846BE
:10CEF00001221B300B0002F0FEFB093F0E1E202218
:10CF000024263D283F00FF20FE3069468880208887
:10CF1000A8DF09B0F0BD0496298B022902D2684629
:10CF2000067502E069460A750690226A04A9204641
:10CF300090470020EDE70492F7E70497F5E7032018
:10CF400014E0042012E0052010E0298B032905D20B
:10CF5000032208212046FFF77DFFDAE741780278B7
:10CF6000080210436946888202D006200490DCE75C
:10CF70000720FBE70920F9E70322EBE730B585B08E
:10CF80000D46040032D0002D30D0286800282DD066
:10CF90000020C043AE4B20800FCB049301AB07C3EE
:10CFA000AC4869460880891C01A863DF00281CD1B1
:10CFB000A21C69460120A0DF002816D168468078AF
:10CFC0002071204600F0C0F800280ED1204600F065
:10CFD000F9F8002809D1286820626868002800D084
:10CFE00060629A4901200870002058E70E2056E739
:10CFF0003EB5002820D000291ED0026A002A1BD08E
:10D000000A88102A19D0112A28D0502A17D0512A5C
:10D0100012D10446891D087802280DD14888E2897A
:10D02000904209D1891C2046FFF73FFF002803D01A
:10D03000616A002900D088473EBD898810E0CA880F
:10D04000C3889A42F8D1082200928A7F6B461A71EF
:10D0500020310291026A694690473EBD0021C943D2
:10D0600001803EBDF0B585B00A4605002DD0288868
:10D07000754988422BD075480078002827D0734C1A
:10D080001020641C2070072060700127A770032106
:10D09000684601820026E11C104600F04CF801466B
:10D0A0006846008A09186846018200960196029631
:10D0B0000396E98901808770868004A80394029012
:10D0C00028886946A6DF05B0F0BD0E20FBE70820E2
:10D0D000F9E7F0B585B00A46050028D028885A49F6
:10D0E000884226D059480078002822D0574C112079
:10D0F000641C20700127684607820026611C1046C8
:10D1000000F019F801466846008A0918684601824D
:10D110000096019602960396E989018087708680C1
:10D1200004A80394029028886946A6DFCBE70E2066
:10D13000C9E70820C7E70870020A4A70020C8A7023
:10D14000000EC8700420704730B58FB005461C2112
:10D15000684602F0DCF9694608780421084369460C
:10D16000087000240194039404940594069428798B
:10D1700008A9887037486946801C0884601C00072D
:10D180000794000F0C77103048778A7FF92002400F
:10D19000921CE7200240012002438A77142109A84B
:10D1A00002F0B5F908A8099007A80A9069468C858D
:10D1B0001420CC8508860D946888AB1D09AAA2DFCF
:10D1C0000FB030BD30B58FB005461C21684602F067
:10D1D0009EF96946087808210843102210436946E1
:10D1E000087000240194039404940594069428790B
:10D1F00008A9887017486946401C0884601C00070D
:10D200000794000F0C7710304877887FF921084089
:10D21000801CF721084010430121084369468877A4
:10D22000142109A802F073F908A8099007A80A9028
:10D2300069468C851720CC8508860D942B46688816
:10D240000E3309AAA2DFBBE7FFFF00004020002049
:10D250005CF703003015000031B5054C04E0401EBA
:10D2600000902046FEF7ACFF00980028F7D138BDAB
:10D27000E703000008280CD004DC002807D00628AB
:10D280000FD108E00B280AD00C280AD105E00120B4
:10D29000704702207047032070470420704704291C
:10D2A00001D0062070470520704710B50B460228B4
:10D2B00019D0032816D100290BD0F648F6498088EA
:10D2C00088420FD0132176DF00280BD0F3A2A421CF
:10D2D00006E0104601F0B0FC002803D0EFA2AA211E
:10D2E000FEF7AAFF10BD01211846FFF7C3FF024653
:10D2F0000121FA48FFF7AEFD0028F3D0E7A2B521DF
:10D30000EEE710B50A46044603211046FFF7B2FFC8
:10D31000024603212046FFF79DFD002803D0DFA22F
:10D32000CF21FEF789FF10BD30B5054687B000203C
:10D330000090019002900390D6486A46C078107021
:10D34000E74A10689268049068460692059008794A
:10D350000C2825D0042809D0032201212846FFF7F4
:10D3600079FD00281AD0CDA2ED2115E0886800F0E3
:10D3700006FA039004A8FFF7B0F900280ED00121A7
:10D38000FFF778FF024601212846FFF763FD0028DA
:10D3900004D0FF21C1A20E31FEF74EFF07B030BD11
:10D3A0008C68204600F0EBF90190201D00F0E7F9B1
:10D3B000029020460830DAE7F0B5054608790E46B7
:10D3C00085B081070AD0032211462846FFF742FDA7
:10D3D00000281FD0FF21B1A2543143E0AD49009095
:10D3E000143101F002FC010011D1AA4CB168009A7D
:10D3F000606902F02DF8009801F052FC010006D19E
:10D4000020466946143001F057FC010004D028463C
:10D41000FFF777FF05B0F0BD03200190009880086A
:10D4200002906069039001A8FFF7A4F907000BD0F0
:10D43000092F1AD0606901F0FFFB010002D02846D5
:10D44000FFF75FFF3946E2E7307921690122401892
:10D45000206103212846FFF7FDFC0028DAD0FF21D8
:10D460008EA28431FEF7E8FED4E7307921694118B5
:10D47000216160780028CDD02089401E0004000C76
:10D480002081C7D12846FFF724FE002804D0FF21C1
:10D4900082A29531FEF7D0FEE0882081BAE710B570
:10D4A000FF217EA2D031FEF7C7FE10BD10B5794C2A
:10D4B0007949A088884208D0132176DF002815D04A
:10D4C00076A28849FEF7B8FE10E0A07800280DD0BB
:10D4D00074DF002804D0834970A2FD39FEF7ACFE4A
:10D4E000FF2081490130C8600020A07001F0CFF812
:10D4F000002804D06D2169A2C900FEF79DFE00201E
:10D5000010BD70B50D6804460120624A2B0002F080
:10D51000F2F80A2F393B0615234F543E5822FFF7E5
:10D5200084F90421FFF7A6FE024604212046FFF7F6
:10D5300091FC00280FD059A26C494BE0FFF7B6FFD1
:10D54000002804D0694955A2491DFEF775FEFFF772
:10D55000C5F9002809D170BDFFF7A8FF002804D045
:10D5600062494EA21231FEF767FEFFF7CCF970BD9B
:10D57000D0600879002803D088680078D07070BD2A
:10D580000420FBE7022000E00320D06070BDD268D9
:10D590002046012A06D0022A07D0032AF6D1FFF737
:10D5A0000BFF70BDFFF7C0FE70BD00F0F2F870BD5C
:10D5B00050708888D080108170BD00205070D0805D
:10D5C00070BD20461169FFF74DFD0028F8D047498E
:10D5D00032A23C31FEF730FE70BD10B52D4CA07864
:10D5E00000280ED13D48143873DF002804D02521CF
:10D5F0002AA20901FEF720FE01203B4A01029160A8
:10D60000A07010BD70B5234C0588A388132D2CD0B5
:10D610000ADC374A3449102D18D0112D15D1CA60B3
:10D62000207800281BD01CE0522D29D0552D0CD17C
:10D630008079002809D11321184676DF002804D00C
:10D640002A4916A29831FEF7F7FD70BD8A60FF22C5
:10D650000132CA608088A0800020A07070BDFFF7F2
:10D66000BCFF0020C043A08070BD0A4A1846183293
:10D6700000217FDF0028F7D01C4908A29031E2E7A3
:10D68000002211461846A9DF0028EDD0174903A251
:10D690009E31D8E748200020FFFF00002F686F6D03
:10D6A000652F7267726F7665722F706C61792F6467
:10D6B000656D6F2D617070732F424C455F426F6FC7
:10D6C000744C6F616465722F6466755F7472616E0D
:10D6D00073706F72745F626C652E63008425002026
:10D6E0006CF703005F03000000050050010200001A
:10D6F0000002000010B5044600F0FAFF21468448FD
:10D70000FFF776FC2046FFF77DFF10BD10B5814A7C
:10D710008149FEF791FD10BD1CB580490020C8600D
:10D720007F4903200860091D08607D491C3108609D
:10D730007C4801F08DF8002820D17B48FEF7CAFF15
:10D7400001F044FA002819D100F074F877480090ED
:10D750007748019069466E48FFF710FC002804D016
:10D76000C9216C4A8900FEF767FD00F088F800F0D7
:10D7700040F800F0BAF8FFF730FF00201CBD10B5EC
:10D78000044601F0C6FE0002E178000A09060843DB
:10D7900010BDFEB50446012000908868029008790B
:10D7A000002283070ED08007800F0422121A002067
:10D7B000034605E00E79029D3618B600AB51401CB9
:10D7C0009042F7D308798018800801906846FFF7E7
:10D7D00007F80221FFF74EFD024602212046FFF71F
:10D7E00039FB002804D0FF214A4A4031FEF724FDCE
:10D7F000FEBD00B587B01C21684601F088FE4D498A
:10D8000001910121890300200291009003226946C1
:10D810000A73C8810874059047480690684600F06E
:10D8200012FF002804D0FF213A4AE731FEF704FD39
:10D8300007B000BD0EB511206946087207223FA14E
:10D8400002A87CDF002804D03349324A3E39FEF773
:10D85000F3FC002000900C22694601900A801822F7
:10D860004A808880FF209130C88068467ADF00288F
:10D8700004D02949274A3439FEF7DEFC0EBD10B525
:10D8800092B006216846017121480179684681708D
:10D890002C4901803C2102A801F039FE02200290AF
:10D8A0000024684644730121018201A8059068465E
:10D8B00081830890214602A800F07CFD002804D056
:10D8C0001549144A1639FEF7B7FC114814211438CB
:10D8D00001F01DFE0E48FF211438047044600472EC
:10D8E00091310182448212B010BD0C491E201831C2
:10D8F0000880887801221043E12210400C30DF229A
:10D90000104088700720C870102008717047000010
:10D91000842500209CD6030011030000482000202D
:10D9200020070050F5D60300ABD2030003D5030057
:10D930000DD70300CD0C00009FD40300446675543E
:10D9400061726700301500000A48026803210A432B
:10D9500002600948804709480047FEE7FEE7FEE706
:10D96000FEE7FEE7FEE7000005480649064A074BCA
:10D97000704700002405004091D90300C1C0030096
:10D980007028002070340020702C0020702C0020A3
:10D9900010B500F026F8234A002804D02248506031
:10D9A0002249D01388612249088CC3B20120012B7F
:10D9B0000DD18B8C1B070AD10B8D1B061B0F042B63
:10D9C00005D1898D0906090F01D11A498860906136
:10D9D000194900224A608A05906048680028FCD0F6
:10D9E00010BD1348018CC9B2012917D1818C0907D8
:10D9F00014D1018D09060A0F03D1828D1206120F70
:10DA00000ED0090F012903D1828D1206120F07D003
:10DA1000032903D1808D0006000F01D0002070473C
:10DA20000120704700050040DFFF07C0006C004088
:10DA3000C00F00F000060040000100408307FF22F5
:10DA4000DB0E9A408907090E994000280BDA00077F
:10DA5000000F08388308FC489B001B18D8699043C6
:10DA60000843D86170478308F8489B001B18186862
:10DA7000904308431860704770B5F54C2079002832
:10DA800013D10120F34900044860F249801C403959
:10DA900048600125F04900040860F0490860F0483A
:10DAA00005602F20FEF79CFB257170BD70B5E84C1A
:10DAB0002079002817D00125E849680480310860E2
:10DAC000E44940108860E349801C40398860E44E96
:10DAD00075602F20FEF784FBB56000252F2065615F
:10DAE000FEF77EFB257170BDF0B5D94F2821BC68CB
:10DAF00041430D1939694A1C09D028224A43161995
:10DB0000AB68B268934204D8D21AB26069623861D5
:10DB1000F0BD0A4602E00A46796A9B1B4E1C0BD0F8
:10DB200028264E433719BE689E42F4D328264E431A
:10DB30003619B768FF1AB760AB60696228214A439B
:10DB400011194862F0BD70B5C14C2269A568134631
:10DB5000114606E0814207D00A462826714349193A
:10DB6000496A4E1CF6D170BD002EFCD08A420CD101
:10DB7000282043435819406A2061401C05D1B84B06
:10DB80000120986000236361607128204143481997
:10DB9000282381685A43406A52195062421CE2D0DD
:10DBA00028225043401982685118816070BDF8B531
:10DBB0000446A74800270169009146785CE0A44824
:10DBC000F100C2688D1851E0601C07D0A04A2820DF
:10DBD0009268604321468018446A24E0287818211E
:10DBE00041436A68401CC0B252182870A978884224
:10DBF00000D12F70964B516828209B684843C0186D
:10DC00001368012B34D1037E002B31D19368C3609C
:10DC1000D368036113694361526902628C4A527985
:10DC2000002A00D0C7608A4BC2685B6996469C4652
:10DC3000D31A1A028B4B120A9A4202D20369D218E3
:10DC400008E0724663469A1A12020369120A934266
:10DC500002D99A1A826000E08760C76001220761DA
:10DC60000276921E42620846FFF73EFF601CABD16F
:10DC7000287869788842A7D13046761EF6B2002807
:10DC80009DD1734801690098814201D00120F8BDFF
:10DC90000020F8BD70B574490020086048608860B5
:10DCA000C8607149403908604A68002A09D0684A4A
:10DCB000946AD36A01263606A41900256B41946242
:10DCC000D362486000F042F970BDFEB50020C04349
:10DCD0005F4D02906869019068462E6900F064F912
:10DCE000074600F07EF90446002F08D002AA0199E9
:10DCF000009800F0BEF90298FFF759FF06E002987D
:10DD0000FFF755FF002801D1002C02D0304600F06B
:10DD1000D9F900206871FEBDFFB59807002481B0D5
:10DD20001E4615460F4600280BD1002E09D0FFF7DE
:10DD3000BDFE47490A9888610F70324600208E6008
:10DD400008E0072005B0F0BD28234343D4509B18BA
:10DD50001C76401CB842F7DB28204743BB19032040
:10DD600048700F461846CB60194618300022182319
:10DD70002E465E43D3005B181C705C709D7058602B
:10DD80003018521C032AF5DB0020C0433861BC70F8
:10DD9000FC70012430482405046003211420FFF79F
:10DDA0004DFE2E480460314C0198A06003211120E3
:10DDB000FFF744FEFFF760FE606878610020C1E76E
:10DDC00070B5234CA568002D06D0002A06D0002887
:10DDD00004D00023247809E0082070BD072070BD1E
:10DDE00028265E43AE59002E04D05B1CA342F7DB0D
:10DDF000042070BD282401265C432E516419E26181
:10DE000061600360002070BD0F494868C005C00D07
:10DE100017D0103807D50207120F083A920892005F
:10DE20005118C96904E08108084A890089180968FD
:10DE30008007C00EC1400806800F012818D00328B3
:10DE400018D002207047000000ED00E000E400E080
:10DE5000702000204013014080E200E000E100E07B
:10DE600000100140FFFF7F004011014000150140FC
:10DE70000020E7E70120E5E7FEB50446BD48174668
:10DE800082680D46002A0CD001788C4201D2052D03
:10DE900001D20720FEBD2146282359435358012BA8
:10DEA00001D00820FEBD8818406801281DD000263A
:10DEB000FFF7AAFFC000AF490190C9684018694642
:10DEC00000F032F9002812D0012144600160AA4913
:10DED00049680830E2C0A7490198C968411800980C
:10DEE000487000F02EF80020FEBD2E46E0E704202A
:10DEF000FEBDF8B59F4D0446A868002809D02978D2
:10DF00008C4201D30720F8BD2821614340580128E5
:10DF100001D00820F8BDFFF777FFC600E868694622
:10DF2000301800F001F9002809D0022112C0E86879
:10DF300031180098487000F004F80020F8BD042063
:10DF4000F8BD01208D49000508607BE7F8B5894CD4
:10DF50002569681C27D08848002740686169401AF5
:10DF60000602360A0BE028204543A068281881687D
:10DF7000B14206D8761ACF19456A00F0E7F8681C56
:10DF8000F1D1A178E078814206D1401CC0B2E070A6
:10DF9000022801D10020E07076490006800D1C3176
:10DFA0000F50FFF7CEFFF8BD10B5724900238A78F5
:10DFB000CC78A24212D0521CD2B28A70022A00D16E
:10DFC0008B708A786B4B92001C339A5802604869B8
:10DFD00010180002000A4861012010BD03600020F3
:10DFE00010BDF8B5634801690091457833E0614898
:10DFF000E900C0680E1834782AE018206043716880
:10E00000641C0818B178E4B2A14200D10024016870
:10E01000022902D003291BD113E0564A4068282167
:10E02000926841438F18397E002911D0FFF78BFD8C
:10E03000002038760CE028277843C0180276406A22
:10E0400003E04C4900228B680869471CF3D1086142
:10E050007078A042D1D128466D1EEDB20028C6D1FD
:10E06000444801690098814201D00120F8BD002098
:10E07000F8BDF7B53F4C0025A76823691EE02821AD
:10E080005943C9198E68864202D9301A886017E050
:10E09000801B751900268E600E764E699C464B6A71
:10E0A000B646002E0AD0019E76193602360ACE6098
:10E0B00076460E6116684E6261461160591CDED1CB
:10E0C0002361FEBDF8B52B4801694A1C29D02822DE
:10E0D0005143826889188E6827494C6847690079DE
:10E0E000E11B0D022D0AED1C002801D1FFF7C4FC35
:10E0F000B54200D23546E81900021F49000A4031F6
:10E1000008601D494968001B091B0902090A000231
:10E11000C91C000A814203D9012018494004086043
:10E12000F8BDFFF7C3FCF8BD42788378521C9342D8
:10E1300000D100220378934201D1002082E60A60D8
:10E14000416840781822504308187BE610B5094909
:10E15000C2698B69006A002B0AD0014610469847B5
:10E16000002804D0FF21064A6E31FEF765F810BD85
:10E17000904710BD702000200015014000E200E033
:10E1800078F70300FFB583B0074600200C9C864655
:10E19000267805463AE07868A90041180A8868465A
:10E1A00082804988C1800022694601A865DF002875
:10E1B00010D1684601780598814226D17046002822
:10E1C00001D0002200E002222078891841181F297E
:10E1D00002D90C2007B0F0BD7146002908D1401CBF
:10E1E000C0B2411C069B049A21701A540120864635
:10E1F000217806980A18694601A865DF0028E9D148
:10E20000694620780978401820706D1C3888A8422B
:10E21000C1DC7046002804D020780699801B401E7F
:10E2200088550020D6E7F8B51546069C1E460746D9
:10E2300002220094FFF7A6FF002806D133461022E1
:10E24000294638460094FFF79DFFF8BDF7B582B028
:10E2500000260546167000681446002805D028469A
:10E26000039900F0DFF806002DD1687900281BD053
:10E270002078039F001D1F2824D8684679DF0028D6
:10E2800021D121780322481C20707A542178192248
:10E29000481C20707A542078C1196846008800F024
:10E2A000BCF82178401820702989002923D001204A
:10E2B0008446EA680398002A07D0227853189B1CEA
:10E2C0001F2B04D90C2005B0F0BD0720FBE7134637
:10E2D000521C491C2270C15422786746511C21707F
:10E2E000875423782A891818E96801F0B1F8207852
:10E2F000297A401820702869002815D0002141563D
:10E3000022788C46D01C03991F28DBD8501C02238E
:10E3100020708B5422780A23501C20708B54207854
:10E320006246431C23700A54A88A002809D0284654
:10E330000094062202211430039BFFF774FF0600AD
:10E34000C1D1A88B002809D02846009407220321B8
:10E350001C30039BFFF767FF0600B4D1A88C002890
:10E3600009D028460094152214212430039BFFF77E
:10E370005AFF0600A7D1E86A002805D02246039973
:10E3800000F085F806009ED1286B002805D02246B3
:10E39000039900F0BBF8060095D13820405D0028B5
:10E3A00006D022462846039900F0E2F806008AD1FA
:10E3B000304688E770B50D4692B000216A4611706C
:10E3C00007241171002812D00189002905D0C168E5
:10E3D000002902D00978490702D4204612B070BD46
:10E3E00002A9FFF733FF0028F8D102AE00E00026B3
:10E3F000002D0BD028890028EFD101AA0AA92846B0
:10E40000FFF724FF0028E9D10AAA00E000226846AD
:10E4100003790178304672DFE0E70870000A48703F
:10E4200002207047F8B514780746A01C15460E4622
:10E430001F2803D83879801C1F2801D90C20F8BD6B
:10E440001D20001B80B26946864608803019801C5A
:10E450007DDF0028F3D13868022805D1684600889E
:10E46000704501D8092107E038790821002801D03A
:10E47000704501D968460088421C3255641CE2B2DE
:10E48000B1542978801C081828700020F8BDF8B510
:10E490000D4611780646881D14461F2801D90C2008
:10E4A000F8BD33880720062BFAD31927FF01BB429A
:10E4B00002D94E4A9342F3D17288062AF0D3BA4267
:10E4C00002D94A4FBA42EBD1484FBB4203D0BA42BD
:10E4D00001D09342E4D8481C052220706A54207869
:10E4E0001222411C21702A54207841193088FFF7EC
:10E4F00094FF21784018C0B2207041197088FFF74E
:10E500008CFF2178401820700020F8BD70B50546BA
:10E5100000790E46801C1446C0B21178821C8A18FD
:10E520001F2A01D90C2070BD0A46491C401C2170CD
:10E53000B0542078FF22411C217032542078811978
:10E540002888FFF76AFF21784018C0B22070AA8897
:10E55000002A09D0A968002908D0801900F078FFA6
:10E560002078297940182070002070BD072070BDE8
:10E57000F7B582B002981446406B0F46002832D09F
:10E58000029800252030009028E00298416B0C2072
:10E5900068430E18217830794A1CC01C22707854C8
:10E5A00021781622481C20707A542078C1193088AE
:10E5B000FFF733FF21784018C0B22070B288002ADC
:10E5C00009D0B16800290ED0C01900F041FF2078B1
:10E5D0003179401820706D1C0098EDB2007EA84281
:10E5E000D3D800206FE607206DE60000FFFF000093
:10E5F00038B56749674A488890420FD04A78664CD8
:10E60000521CD2B24A70237B934208D3083175DF83
:10E61000002803D0A169002900D0884738BD002513
:10E620004D70217C002907D03B2176DF002803D0E4
:10E63000A169002900D0884761690029EED06846A9
:10E640000095884738BD70B5054601461C225248E2
:10E65000FDF7D6FD4E4C002626702968002907D00C
:10E660000822A01800F0F4FE204608307ADF02E00D
:10E67000474808307BDF002808D1401E60804448AE
:10E680006670464A0021001DFFF79AFB70BD10B569
:10E690003F484068FFF72DFC10BDF8B53C481030EE
:10E6A00000F069F800263A4D3B4C002806D061691D
:10E6B000002919D001200090684614E0287800282D
:10E6C00004D0616900290FD00096F5E7687800282A
:10E6D0000CD0A16800226868FFF7CEFB002803D0A9
:10E6E000A169002900D088472E70F8BD6168F1E764
:10E6F000F8B5294C02880027254DE689102A18D044
:10E7000029464968112A21D0122A2DD0502A0FD12A
:10E71000801D0288B2420BD1028B022A08D1C27E30
:10E72000837E10021843C007C00F13D0FFF7B5FF58
:10E73000F8BD818869800146154808220E311030E5
:10E7400000F086FE6F70002EF0D0F8BD0020C043B0
:10E7500068806F700846FFF7CCFB0028F5D0A169F0
:10E760000029F2D08847F8BD811D094808221030E1
:10E7700000F06EFEDAE741880548083002889142D1
:10E7800004D34088814201D801207047002070479F
:10E79000A0200020FFFF0000AC250020F1E50300D1
:10E7A00010B508461146FDF749FD10BDF8B5394CC6
:10E7B0002078002837D02069002807D00026E0689C
:10E7C000002805D00025002E04D013E00126F6E72E
:10E7D0000125F8E7684651DF052806D0002806D055
:10E7E0002DA26921FDF728FD04E0012602E0216940
:10E7F00000988847002D12D1608869460880A0687B
:10E8000061DF052806D0002806D023A28021FDF76D
:10E8100013FD04E0012502E0E168A0688847002EAE
:10E82000D8D0002DCFD0F8BD10B5002901D08C076D
:10E8300001D0072010BD174CA1606280254963609C
:10E8400010DF0028F6D101202070162026DF10BD31
:10E85000002803D00F49C860002070470E20704781
:10E86000002803D00B490861002070470E20704734
:10E8700010B508484068002808D08047002804D018
:10E88000FF2105A23431FDF7D7FC10BDFFF78EFF45
:10E8900010BD0000B82000202F686F6D652F7267D3
:10E8A000726F7665722F706C61792F6E52463531BA
:10E8B0003832322F6E6F726469632F736F667464BF
:10E8C00065766963655F68616E646C65722E6370FE
:10E8D00070000000A1E70300F0B500220123032629
:10E8E00036041F4697400C463C420FD0C5682C4664
:10E8F0003C420FD03446BD43C5603C4D97007D1966
:10E900002F68B7432F602F6827432F60521C202A9F
:10E91000E7D3F0BD012464043D43EDE7F8B5344886
:10E92000056934490020C863074632E014213A469D
:10E930004A434168806854180121B940014226D0F9
:10E94000E068C64320686E40064031462046FFF727
:10E95000C3FF2748006968400CD00543E068216880
:10E96000C04368400840014600902046FFF7B4FFCE
:10E97000009806433046A168A84301402A466068D3
:10E980003240104002460A4301D0226990477F1C62
:10E99000FFB2194841788F42C8D3F8BD10B500299D
:10E9A00003D08A070024002A01D0072010BD124A94
:10E9B0000B46516010701421547041431846946006
:10E9C00000F0A5FD00200D49C04388600C4840219F
:10E9D00001600C4A1068FF231B0498430B04184382
:10E9E000106009480160002010BD000000070050C1
:10E9F0000005005040610040CC2000200063004032
:10EA000080E200E004E400E000E100E030B5CB008B
:10EA100008339DB293070024002B01D0072030BD9E
:10EA2000564B9A605219DA605C701C70588099805D
:10EA3000002030BDF7B5514C82B060880F4681424E
:10EA40006CD80020694608704E494D4E4868C00594
:10EA5000C00D16D0103807D50207120F083A9208D9
:10EA600092005118C96904E08108474A8900891851
:10EA700009688007C00EC1400806850F012D01D12D
:10EA80000AE0042568462EDF02280BD0002803D0B8
:10EA90003EA25921FDF7D0FB6078A188884203D2BD
:10EAA000401C02E072B6F7E700202278C0B2904224
:10EAB00007D066786078884201DA401C00E00020C8
:10EAC0006070012D0BD062B6684600782FDF0228F7
:10EAD00005D0002803D02DA26121FDF7ADFB284809
:10EAE000864219D0A068F500049941510299002985
:10EAF0000CD0002F0AD060883A464643E0683018B0
:10EB000000F0A6FCA0682818878002E000212818E1
:10EB10008180002005B0F0BD0420FBE70920F9E763
:10EB20000EB504E068468188029A0098904702AAD0
:10EB300001A9684600F003F80028F3D00EBD70B5B7
:10EB40000E4B05245D781E78B54215D01D781C78D3
:10EB50009E88B44201DA641C00E000241C705C88CA
:10EB6000DE686C43A41904609B68E800C418A4889C
:10EB70000C80185800241060204670BDD82000205A
:10EB8000FFFF000000ED00E000E400E02F686F6D83
:10EB9000652F7267726F7665722F706C61792F6E58
:10EBA000524635313832322F6E6F726469632F618D
:10EBB00070705F636F6D6D6F6E2F6170705F7363E8
:10EBC000686564756C65722E630000004B48002117
:10EBD00001704C484A4A02608160C16001610822AC
:10EBE0004161426081610846704710B500291DD01F
:10EBF00000220A60434A5368002B1BD0202817D8F4
:10EC00005B1E5360D0682423401CD06010691468D8
:10EC10004343E3180B60012383409169401C19436F
:10EC20004007400F91611061002010BD0E2010BD03
:10EC30000C2010BD042010BDF0B5324A0646916884
:10EC400000292BD057691020791A4907490F1468F9
:10EC50000B4624254D436519B54206D1012495691B
:10EC60008C4065400020956104E0491C4907490F2C
:10EC70008F42EED1491C4E07760F956901210C4653
:10EC80009C402B4623420AD19368002B07D05B1E81
:10EC9000936053685B1C53603346F0E70420F0BD7B
:10ECA000184A2423117C1268491E4907490F594309
:10ECB000203150500020704770B500281AD000292C
:10ECC00018D0104AD368002B16D05B1ED36093680F
:10ECD00024265B1C9360536915681C467343EE1829
:10ECE00020330660E858641C08606007400F5061DC
:10ECF000002070BD0E2070BD042070BDE8200020F3
:10ED0000C8250020E826002018225043FE4A002192
:10ED10008018017181604161012281610261C160DD
:10ED20007047FFB581B0F94C049B039A05462669EC
:10ED30001A4303200092002E03D1002A0ED0012294
:10ED400022612769039A0126360792003B0000F0F2
:10ED5000D2FC072707162940526127000222EFE75D
:10ED60007069326992B25043326933691204920C6D
:10ED70009BB2594321DF002812D102210FE008463F
:10ED800020DF00280CD10399002901D0032106E0DF
:10ED90000499002916D12978042946D017E0216169
:10EDA00005B0F0BD7069326992B25043326993B2D6
:10EDB0004B4301461846039A21DF0028F0D10499FD
:10EDC000002901D00421EAE72978042920D005216F
:10EDD000E5E773693069366980B2434368681B1898
:10EDE0009B18B6B24E43301880181946049A21DF9A
:10EDF0000028E9D0D4E7306980B2484369688018B8
:10EE00008A08696921DF0028CAD1009900290CD03D
:10EE10000621C4E77069316989B24843316989B212
:10EE200000F088FB20DF0028BAD10721B7E7F8B54A
:10EE3000B54918230A780F205A435418241DB349A2
:10EE400022782669CF68022A1BD001252D07042AC3
:10EE50002AD0052A5BD1286981B2304600F06AFBCE
:10EE60000146A36828699A1980B24843101A82089B
:10EE700060681818861928694B1C80B25843801B9B
:10EE800034E0B80262686169121A0918A368301880
:10EE9000181801239B029A4202D2920821DF31E026
:10EEA000FF22013221DF2DE0E26897491420504310
:10EEB000F4314018001D0BC8B04203D160685943BB
:10EEC000814218D0022A16D0286981B2304600F05B
:10EED00031FB0146286980B24843301A820828690C
:10EEE0004B1C80B2584363689B19C01A83082046A4
:10EEF000FFF717FF06E0286981B2304600F01AFBE1
:10EF0000C01920DF002802D17F4901228A70F8BD94
:10EF1000F8B57D4C069E65780A2D1DD027787D19A1
:10EF2000EDB20A2D01D30A3DEDB218277D432D190C
:10EF30002871AA6103C9EE60AB6069612861A1789C
:10EF40000020002904D1FFF772FF112800D1002012
:10EF50006178491C6170F8BD0420F8BD38B50246DF
:10EF60006948182301785943081803690179022B6D
:10EF70000AD014246343644CF434E4588368009347
:10EF800083691030A04738BD604B14331C68F5E727
:10EF9000F8B55D4B9978012914D100255B499D7026
:10EFA0000A69082A05D002280FD003280AD10D20AB
:10EFB00006E0022807D00D7000F018FA002801D0F2
:10EFC000FFF7CCFFF8BD0D61F6E74F481824037832
:10EFD0004E496343CC681818641C001DCC6003784C
:10EFE000022B05D14668A102B14201D3012700E0FE
:10EFF0000027052B01D1072A03D00021042B02D0C2
:10F0000003E00121FAE7072A03D00026042B02D0EF
:10F0100007E00126FAE74068A302834201D3002AF1
:10F020001AD00020314301433943C5D0374E28461A
:10F030003561FFF793FF344C2078FFF765FEF560EC
:10F040006078401E60702078401CC0B220700A2892
:10F05000B2D30A382070AFE70120E3E770B500258E
:10F060002A4C2948E56025610570457085702E465B
:10F070003046FFF749FE761C0A2EF9D3012212070B
:10F080006560516928461269491E92B25143E56094
:10F09000A1601D49F4310D608D600D61CD601B498B
:10F0A00014310D60888001212170206170BDF8B598
:10F0B000164A044610780E46002830D0002C30D076
:10F0C000002E2ED0206800282BD001200007676872
:10F0D000016989B28F4228D8102F26D3A168002950
:10F0E00023D09568794343694A19006980B2434344
:10F0F0009A421AD801200007006980B2814212D9D1
:10F1000001200007006903E004270020F020002010
:10F1100080B2394600F00EFA002906D103E008203B
:10F12000F8BD0E20F8BDB80701D00720F8BDB749DB
:10F13000486801281CD00F461421B54A21C6414316
:10F140008E187560236853506168B160A168F160E2
:10F15000A268616800235143012212075B1C1469F5
:10F160009BB2A4B28C4205D21469A4B2091B02E07E
:10F170000420F8BD00211469A4B265191469A4B271
:10F180008C42EBD9BD60401C336178600020F8BD33
:10F19000F8B504469D481E46007815460F460028DF
:10F1A00007D0002F07D0002C05D02068002817D1E9
:10F1B00003E00820F8BD0E20F8BD9548016800293D
:10F1C0000ED0C268816840684A4310186268904255
:10F1D00006D9002D04D0A94202D3A819884201D92A
:10F1E0000720F8BD384600F0FBF8002807D030466D
:10F1F00000F0F6F8002802D02079800701D0102016
:10F20000F8BD2B463A46214602200096FFF780FEC5
:10F21000F8BDFFB57D4881B000781F4616460D4603
:10F22000002808D0002D08D00198002805D02868B3
:10F23000002817D103E00820B2E50E20B0E5744C99
:10F24000206800280ED0E168A068626841438918F0
:10F250006A68914206D9002E04D0B04202D3F11957
:10F26000814201D907209BE5019800F0B9F80028F8
:10F2700007D0384600F0B4F8002802D0686881074B
:10F2800001D010208CE5C1193246019800F0E0F859
:10F290000096286814214843245800220321284658
:10F2A000019BA04700207BE5F8B5044657480E4671
:10F2B0000078002805D0002C05D0206800281BD13C
:10F2C00003E00820F8BD0E20F8BD5149002508686C
:10F2D000002811D08A68C86849685043431860689C
:10F2E000834209D9830701D01020F8BD401A114686
:10F2F00000F020F9002901D00720F8BD3346002294
:10F30000214604200095FFF703FEF8BD3F4A12781E
:10F31000002A0DD000280DD000290BD00268002A49
:10F3200008D03A4A14321368002B05D004207047E5
:10F33000082070470E20704702230B6000681060A1
:10F3400000207047F8B5044630481E46007817463E
:10F350000D46002807D0002D07D0002C05D02068CE
:10F3600002281BD103E00820F8BD0E20F8BD274875
:10F3700014300068002811D0084600F031F8002849
:10F380000ED0304600F02CF8002809D03B462A4623
:10F39000214602200096FFF7BBFDF8BD0720F8BD0F
:10F3A0001020F8BD08B5194A1278002A05D00028A7
:10F3B00005D00268022A11D103E0082008BD0E2002
:10F3C00008BD124A14321268002A07D00B460022E8
:10F3D000014604200092FFF79BFD08BD072008BDF1
:10F3E000800701D00020704701207047084910B500
:10F3F000F43949780020002906D0FFF718FD0028CD
:10F4000002D0112800D1002010BD0000F020002003
:10F41000F827002010B50446002A02D010880022E8
:10F4200010E00A48FBE7030A00020343A05C5840CF
:10F4300003061B0F43401803584083B21806C00C44
:10F440005840521C8A42EED310BD0000FFFF00005E
:10F45000F8B5042A2CD3830712D00B78491C03700B
:10F46000401C521E83070BD00B78491C0370401CB4
:10F47000521E830704D00B78491C0370401C521E97
:10F480008B079B0F05D0C91ADF002023DE1B08C99C
:10F490000AE0FCF7B5FEF8BD1D4608C9FD401C4654
:10F4A000B4402C4310C0121F042AF5D2F308C91A25
:10F4B000521EF0D40B78491C0370401C521EEAD433
:10F4C0000B78491C0370401C521EE4D4097801706B
:10F4D000F8BD01E004C0091F0429FBD28B0701D548
:10F4E0000280801CC90700D00270704700290BD031
:10F4F000C30702D00270401C491E022904D38307AF
:10F5000002D50280801C891EE3E70022EEE700227C
:10F51000DFE70378C2781946437812061B021943C5
:10F520008378C0781B04194311430902090A0006B5
:10F5300008437047002203098B422CD3030A8B42F5
:10F5400011D300239C464EE003460B433CD40022DB
:10F5500043088B4231D303098B421CD3030A8B42ED
:10F5600001D394463FE0C3098B4201D3CB01C01ABB
:10F57000524183098B4201D38B01C01A5241430986
:10F580008B4201D34B01C01A524103098B4201D374
:10F590000B01C01A5241C3088B4201D3CB00C01AE1
:10F5A000524183088B4201D38B00C01A5241430859
:10F5B0008B4201D34B00C01A5241411A00D201467E
:10F5C0005241104670475DE0CA0F00D04942031017
:10F5D00000D34042534000229C4603098B422DD366
:10F5E000030A8B4212D3FC22890112BA030A8B420E
:10F5F0000CD3890192118B4208D3890192118B425D
:10F6000004D389013AD0921100E08909C3098B42E1
:10F6100001D3CB01C01A524183098B4201D38B0124
:10F62000C01A524143098B4201D34B01C01A5241C7
:10F6300003098B4201D30B01C01A5241C3088B420C
:10F6400001D3CB00C01A524183088B4201D38B00F7
:10F65000C01A5241D9D243088B4201D34B00C01A81
:10F660005241411A00D20146634652415B10104696
:10F6700001D34042002B00D54942704763465B10DE
:10F6800000D3404201B50020C046C04602BD7047CD
:10F6900070477047754600F023F8AE46050069468E
:10F6A0005346C008C000854618B020B5FEF75CF987
:10F6B00060BC00274908B6460026C0C5C0C5C0C505
:10F6C000C0C5C0C5C0C5C0C5C0C5403D49008D4608
:10F6D00070470446C046C0462046FCF73EFD000089
:10F6E000004870470C28002001491820ABBEFEE7F7
:10F6F00026000200704730B47446641E2578641CEE
:10F70000AB4200D21D46635D5B00E31830BC184776
:10F7100002000000000000000000000000000000E7
:10F7200004000000000000000000000000000000D5
:10F7300000000000000000005DC4030000000000A5
:10F7400000000000020000000000000000000000B7
:10F7500000000000000000000000000023D1BCEA0F
:10F760005F782315DEEF1212000000000200000097
:10F7700000000000000000002F686F6D652F7267A9
:10F78000726F7665722F706C61792F6D6265642D72
:10F790007372632F6C69627261726965732F6D6237
:10F7A00065642F746172676574732F68616C2F5480
:10F7B00041524745545F4E4F524449432F544152A2
:10F7C0004745545F4D43555F4E52463531383232CE
:10F7D0002F4C69622F6170705F636F6D6D6F6E2F5C
:10F7E0006170705F74696D65722E63000CF80300C0
:10F7F000002000200C01000004C1030018F90300E0
:10F800000C2100206413000020C103000000000050
:10F8100000000000000000000000000000000000E8
:10F8200000000000000000000000000000000000D8
:10F8300000000000000000000000000000000000C8
:10F8400000000000000000000000000000000000B8
:10F850000000000000000000FFFF000000000000AA
:10F860000000000000000000000000000000000098
:10F87000000000000024F400000000000000000070
:10F880000000000000000000000000000000000078
:10F890000000000000000000000000000000000068
:10F8A0000000000000000000000000000000000058
:10F8B0000000000000000000000000000000000048
:10F8C0000000000000000000000000000000000038
:10F8D0000000000000000000000000000000000028
:10F8E0000000000000000000000000000000000018
:10F8F0000000000000000000000000000000000008
:10F9000000000000000000000000000000000000F7
:08F910000000000000000000EF
:20FC00000100000000000000FE0000000000000000000000000000000000000000000000E5
:020000041000EA
:0410140000C0030015
:040000050003C0C173
:00000001FF
